{
  "contractName": "ProofOfExistence",
  "abi": [
    {
      "anonymous": false,
      "inputs": [
        {
          "components": [
            {
              "internalType": "uint256",
              "name": "docId",
              "type": "uint256"
            },
            {
              "internalType": "bytes32",
              "name": "hashKey",
              "type": "bytes32"
            },
            {
              "internalType": "string",
              "name": "name",
              "type": "string"
            },
            {
              "internalType": "uint256",
              "name": "size",
              "type": "uint256"
            },
            {
              "internalType": "string",
              "name": "docType",
              "type": "string"
            }
          ],
          "indexed": false,
          "internalType": "struct ProofOfExistence.DocumentProof[]",
          "name": "documentProofs",
          "type": "tuple[]"
        }
      ],
      "name": "AllDocumentsEvent",
      "type": "event"
    },
    {
      "constant": true,
      "inputs": [
        {
          "internalType": "uint256",
          "name": "",
          "type": "uint256"
        }
      ],
      "name": "documentProofs",
      "outputs": [
        {
          "internalType": "uint256",
          "name": "docId",
          "type": "uint256"
        },
        {
          "internalType": "bytes32",
          "name": "hashKey",
          "type": "bytes32"
        },
        {
          "internalType": "string",
          "name": "name",
          "type": "string"
        },
        {
          "internalType": "uint256",
          "name": "size",
          "type": "uint256"
        },
        {
          "internalType": "string",
          "name": "docType",
          "type": "string"
        }
      ],
      "payable": false,
      "stateMutability": "view",
      "type": "function"
    },
    {
      "constant": false,
      "inputs": [
        {
          "internalType": "string",
          "name": "document",
          "type": "string"
        },
        {
          "internalType": "uint256",
          "name": "size",
          "type": "uint256"
        },
        {
          "internalType": "string",
          "name": "docType",
          "type": "string"
        }
      ],
      "name": "notarize",
      "outputs": [],
      "payable": false,
      "stateMutability": "nonpayable",
      "type": "function"
    },
    {
      "constant": false,
      "inputs": [
        {
          "internalType": "uint256",
          "name": "docId",
          "type": "uint256"
        }
      ],
      "name": "removeNotarizedDocument",
      "outputs": [
        {
          "internalType": "bool",
          "name": "",
          "type": "bool"
        }
      ],
      "payable": false,
      "stateMutability": "nonpayable",
      "type": "function"
    },
    {
      "constant": false,
      "inputs": [
        {
          "internalType": "uint256[]",
          "name": "docIds",
          "type": "uint256[]"
        }
      ],
      "name": "removeSelectedDocuments",
      "outputs": [],
      "payable": false,
      "stateMutability": "nonpayable",
      "type": "function"
    },
    {
      "constant": true,
      "inputs": [],
      "name": "getAllDocumentProofs",
      "outputs": [
        {
          "components": [
            {
              "internalType": "uint256",
              "name": "docId",
              "type": "uint256"
            },
            {
              "internalType": "bytes32",
              "name": "hashKey",
              "type": "bytes32"
            },
            {
              "internalType": "string",
              "name": "name",
              "type": "string"
            },
            {
              "internalType": "uint256",
              "name": "size",
              "type": "uint256"
            },
            {
              "internalType": "string",
              "name": "docType",
              "type": "string"
            }
          ],
          "internalType": "struct ProofOfExistence.DocumentProof[]",
          "name": "",
          "type": "tuple[]"
        }
      ],
      "payable": false,
      "stateMutability": "view",
      "type": "function"
    },
    {
      "constant": true,
      "inputs": [
        {
          "internalType": "uint256",
          "name": "_id",
          "type": "uint256"
        }
      ],
      "name": "findById",
      "outputs": [
        {
          "components": [
            {
              "internalType": "uint256",
              "name": "docId",
              "type": "uint256"
            },
            {
              "internalType": "bytes32",
              "name": "hashKey",
              "type": "bytes32"
            },
            {
              "internalType": "string",
              "name": "name",
              "type": "string"
            },
            {
              "internalType": "uint256",
              "name": "size",
              "type": "uint256"
            },
            {
              "internalType": "string",
              "name": "docType",
              "type": "string"
            }
          ],
          "internalType": "struct ProofOfExistence.DocumentProof",
          "name": "",
          "type": "tuple"
        }
      ],
      "payable": false,
      "stateMutability": "view",
      "type": "function"
    },
    {
      "constant": false,
      "inputs": [
        {
          "internalType": "uint256",
          "name": "_id",
          "type": "uint256"
        }
      ],
      "name": "findAndDelete",
      "outputs": [
        {
          "internalType": "bool",
          "name": "",
          "type": "bool"
        }
      ],
      "payable": true,
      "stateMutability": "payable",
      "type": "function"
    }
  ],
  "bytecode": "0x608060405234801561001057600080fd5b50611a3d806100206000396000f3fe6080604052600436106100705760003560e01c806352b822b71161004e57806352b822b71461010f57806366f76e32146101385780639a64a27614610163578063b6b1512f146101a057610070565b8063149066fd1461007557806328a1a27c146100b6578063427e9125146100df575b600080fd5b34801561008157600080fd5b5061009c60048036036100979190810190611165565b6101dd565b6040516100ad959493929190611771565b60405180910390f35b3480156100c257600080fd5b506100dd60048036036100d891908101906110a5565b610350565b005b6100f960048036036100f49190810190611165565b61038d565b60405161010691906116f4565b60405180910390f35b34801561011b57600080fd5b50610136600480360361013191908101906110e6565b610863565b005b34801561014457600080fd5b5061014d6109e3565b60405161015a91906116b0565b60405180910390f35b34801561016f57600080fd5b5061018a60048036036101859190810190611165565b610ba4565b604051610197919061174f565b60405180910390f35b3480156101ac57600080fd5b506101c760048036036101c29190810190611165565b610dcf565b6040516101d491906116f4565b60405180910390f35b600081815481106101ea57fe5b9060005260206000209060050201600091509050806000015490806001015490806002018054600181600116156101000203166002900480601f0160208091040260200160405190810160405280929190818152602001828054600181600116156101000203166002900480156102a25780601f10610277576101008083540402835291602001916102a2565b820191906000526020600020905b81548152906001019060200180831161028557829003601f168201915b505050505090806003015490806004018054600181600116156101000203166002900480601f0160208091040260200160405190810160405280929190818152602001828054600181600116156101000203166002900480156103465780601f1061031b57610100808354040283529160200191610346565b820191906000526020600020905b81548152906001019060200180831161032957829003601f168201915b5050505050905085565b60008090505b81518110156103895761037b82828151811061036e57fe5b602002602001015161038d565b508080600101915050610356565b5050565b60008060008090505b6000805490508110156103da5783600082815481106103b157fe5b90600052602060002090600502016000015414156103cd578091505b8080600101915050610396565b50600081101561041f576040517f08c379a00000000000000000000000000000000000000000000000000000000081526004016104169061170f565b60405180910390fd5b610427610e11565b60006001600080549050038154811061043c57fe5b90600052602060002090600502016040518060a00160405290816000820154815260200160018201548152602001600282018054600181600116156101000203166002900480601f0160208091040260200160405190810160405280929190818152602001828054600181600116156101000203166002900480156105025780601f106104d757610100808354040283529160200191610502565b820191906000526020600020905b8154815290600101906020018083116104e557829003601f168201915b5050505050815260200160038201548152602001600482018054600181600116156101000203166002900480601f0160208091040260200160405190810160405280929190818152602001828054600181600116156101000203166002900480156105ae5780601f10610583576101008083540402835291602001916105ae565b820191906000526020600020905b81548152906001019060200180831161059157829003601f168201915b50505050508152505090506105c1610e11565b600083815481106105ce57fe5b90600052602060002090600502016040518060a00160405290816000820154815260200160018201548152602001600282018054600181600116156101000203166002900480601f0160208091040260200160405190810160405280929190818152602001828054600181600116156101000203166002900480156106945780601f1061066957610100808354040283529160200191610694565b820191906000526020600020905b81548152906001019060200180831161067757829003601f168201915b5050505050815260200160038201548152602001600482018054600181600116156101000203166002900480601f0160208091040260200160405190810160405280929190818152602001828054600181600116156101000203166002900480156107405780601f1061071557610100808354040283529160200191610740565b820191906000526020600020905b81548152906001019060200180831161072357829003601f168201915b5050505050815250509050816000848154811061075957fe5b906000526020600020906005020160008201518160000155602082015181600101556040820151816002019080519060200190610797929190610e43565b506060820151816003015560808201518160040190805190602001906107be929190610e43565b50905050806000600160008054905003815481106107d857fe5b906000526020600020906005020160008201518160000155602082015181600101556040820151816002019080519060200190610816929190610e43565b5060608201518160030155608082015181600401908051906020019061083d929190610e43565b5090505060008054809190600190036108569190610ec3565b5060019350505050919050565b60008351116108a7576040517f08c379a000000000000000000000000000000000000000000000000000000000815260040161089e9061172f565b60405180910390fd5b600061019042856040516020016108bf929190611688565b6040516020818303038152906040528051906020012060001c816108df57fe5b0690506108ea610e11565b6040518060a0016040528083815260200161090487610de1565b81526020018681526020018581526020018481525090506000819080600181540180825580915050906001820390600052602060002090600502016000909192909190915060008201518160000155602082015181600101556040820151816002019080519060200190610979929190610e43565b506060820151816003015560808201518160040190805190602001906109a0929190610e43565b505050507fb8ba55c075df870aa2e41f63c695d9915ea38198102404999f7187bbe0612ad560006040516109d491906116d2565b60405180910390a15050505050565b60606000805480602002602001604051908101604052809291908181526020016000905b82821015610b9b57838290600052602060002090600502016040518060a00160405290816000820154815260200160018201548152602001600282018054600181600116156101000203166002900480601f016020809104026020016040519081016040528092919081815260200182805460018160011615610100020316600290048015610ad75780601f10610aac57610100808354040283529160200191610ad7565b820191906000526020600020905b815481529060010190602001808311610aba57829003601f168201915b5050505050815260200160038201548152602001600482018054600181600116156101000203166002900480601f016020809104026020016040519081016040528092919081815260200182805460018160011615610100020316600290048015610b835780601f10610b5857610100808354040283529160200191610b83565b820191906000526020600020905b815481529060010190602001808311610b6657829003601f168201915b50505050508152505081526020019060010190610a07565b50505050905090565b610bac610e11565b610bb4610e11565b60008090505b600080549050811015610d8e578360008281548110610bd557fe5b9060005260206000209060050201600001541415610d815760008181548110610bfa57fe5b90600052602060002090600502016040518060a00160405290816000820154815260200160018201548152602001600282018054600181600116156101000203166002900480601f016020809104026020016040519081016040528092919081815260200182805460018160011615610100020316600290048015610cc05780601f10610c9557610100808354040283529160200191610cc0565b820191906000526020600020905b815481529060010190602001808311610ca357829003601f168201915b5050505050815260200160038201548152602001600482018054600181600116156101000203166002900480601f016020809104026020016040519081016040528092919081815260200182805460018160011615610100020316600290048015610d6c5780601f10610d4157610100808354040283529160200191610d6c565b820191906000526020600020905b815481529060010190602001808311610d4f57829003601f168201915b50505050508152505091508192505050610dca565b8080600101915050610bba565b506040517f08c379a0000000000000000000000000000000000000000000000000000000008152600401610dc19061170f565b60405180910390fd5b919050565b6000610dda8261038d565b9050919050565b600081604051602001610df49190611671565b604051602081830303815290604052805190602001209050919050565b6040518060a0016040528060008152602001600080191681526020016060815260200160008152602001606081525090565b828054600181600116156101000203166002900490600052602060002090601f016020900481019282601f10610e8457805160ff1916838001178555610eb2565b82800160010185558215610eb2579182015b82811115610eb1578251825591602001919060010190610e96565b5b509050610ebf9190610ef5565b5090565b815481835581811115610ef057600502816005028360005260206000209182019101610eef9190610f1a565b5b505050565b610f1791905b80821115610f13576000816000905550600101610efb565b5090565b90565b610f6e91905b80821115610f6a576000808201600090556001820160009055600282016000610f499190610f71565b6003820160009055600482016000610f619190610f71565b50600501610f20565b5090565b90565b50805460018160011615610100020316600290046000825580601f10610f975750610fb6565b601f016020900490600052602060002090810190610fb59190610ef5565b5b50565b600082601f830112610fca57600080fd5b8135610fdd610fd8826117ff565b6117d2565b9150818183526020840193506020810190508385602084028201111561100257600080fd5b60005b8381101561103257816110188882611090565b845260208401935060208301925050600181019050611005565b5050505092915050565b600082601f83011261104d57600080fd5b813561106061105b82611827565b6117d2565b9150808252602083016020830185838301111561107c57600080fd5b611087838284611945565b50505092915050565b60008135905061109f816119e3565b92915050565b6000602082840312156110b757600080fd5b600082013567ffffffffffffffff8111156110d157600080fd5b6110dd84828501610fb9565b91505092915050565b6000806000606084860312156110fb57600080fd5b600084013567ffffffffffffffff81111561111557600080fd5b6111218682870161103c565b935050602061113286828701611090565b925050604084013567ffffffffffffffff81111561114f57600080fd5b61115b8682870161103c565b9150509250925092565b60006020828403121561117757600080fd5b600061118584828501611090565b91505092915050565b600061119a8383611521565b905092915050565b60006111ae838361159e565b905092915050565b60006111c18261188d565b6111cb81856118d3565b9350836020820285016111dd85611853565b8060005b8581101561121957848403895281516111fa858261118e565b9450611205836118b9565b925060208a019950506001810190506111e1565b50829750879550505050505092915050565b600061123682611898565b61124081856118d3565b93508360208202850161125285611863565b8060005b8581101561128d5784840389528161126e85826111a2565b9450611279836118c6565b925060208a01995050600181019050611256565b50829750879550505050505092915050565b6112a881611925565b82525050565b6112b781611931565b82525050565b6112c681611931565b82525050565b60006112d7826118ae565b6112e18185611906565b93506112f1818560208601611954565b80840191505092915050565b6000611308826118a3565b61131281856118e4565b9350611322818560208601611954565b61132b816119c5565b840191505092915050565b6000611341826118a3565b61134b81856118f5565b935061135b818560208601611954565b611364816119c5565b840191505092915050565b60008154600181166000811461138c57600181146113b2576113f6565b607f600283041661139d81876118e4565b955060ff1983168652602086019350506113f6565b600282046113c081876118e4565b95506113cb85611878565b60005b828110156113ed578154818901526001820191506020810190506113ce565b80880195505050505b505092915050565b600061140b6018836118f5565b91507f446f63756d656e7420646f6573206e6f742065786973742e00000000000000006000830152602082019050919050565b600061144b6021836118f5565b91507f446f63756d656e74206e616d652073686f756c64206e6f7420626520656d707460008301527f79000000000000000000000000000000000000000000000000000000000000006020830152604082019050919050565b600060a0830160008301516114bc600086018261163c565b5060208301516114cf60208601826112ae565b50604083015184820360408601526114e782826112fd565b91505060608301516114fc606086018261163c565b506080830151848203608086015261151482826112fd565b9150508091505092915050565b600060a083016000830151611539600086018261163c565b50602083015161154c60208601826112ae565b506040830151848203604086015261156482826112fd565b9150506060830151611579606086018261163c565b506080830151848203608086015261159182826112fd565b9150508091505092915050565b600060a0830160008084015490506115b5816119a1565b6115c2600087018261163c565b50600184015490506115d381611987565b6115e060208701826112ae565b506002840185830360408701526115f7838261136f565b9250506003840154905061160a816119a1565b611617606087018261163c565b5060048401858303608087015261162e838261136f565b925050819250505092915050565b6116458161193b565b82525050565b6116548161193b565b82525050565b61166b6116668261193b565b6119bb565b82525050565b600061167d82846112cc565b915081905092915050565b6000611694828561165a565b6020820191506116a482846112cc565b91508190509392505050565b600060208201905081810360008301526116ca81846111b6565b905092915050565b600060208201905081810360008301526116ec818461122b565b905092915050565b6000602082019050611709600083018461129f565b92915050565b60006020820190508181036000830152611728816113fe565b9050919050565b600060208201905081810360008301526117488161143e565b9050919050565b6000602082019050818103600083015261176981846114a4565b905092915050565b600060a082019050611786600083018861164b565b61179360208301876112bd565b81810360408301526117a58186611336565b90506117b4606083018561164b565b81810360808301526117c68184611336565b90509695505050505050565b6000604051905081810181811067ffffffffffffffff821117156117f557600080fd5b8060405250919050565b600067ffffffffffffffff82111561181657600080fd5b602082029050602081019050919050565b600067ffffffffffffffff82111561183e57600080fd5b601f19601f8301169050602081019050919050565b6000819050602082019050919050565b60008190508160005260206000209050919050565b60008190508160005260206000209050919050565b600081519050919050565b600081549050919050565b600081519050919050565b600081519050919050565b6000602082019050919050565b6000600582019050919050565b600082825260208201905092915050565b600082825260208201905092915050565b600082825260208201905092915050565b600081905092915050565b6000819050919050565b6000819050919050565b60008115159050919050565b6000819050919050565b6000819050919050565b82818337600083830152505050565b60005b83811015611972578082015181840152602081019050611957565b83811115611981576000848401525b50505050565b600061199a611995836119d6565b611911565b9050919050565b60006119b46119af836119d6565b61191b565b9050919050565b6000819050919050565b6000601f19601f8301169050919050565b60008160001c9050919050565b6119ec8161193b565b81146119f757600080fd5b5056fea365627a7a72315820664483852e05b91271edb13a7ec9f7fb5511d87d7ef1593acbfbf1cf5cedbf846c6578706572696d656e74616cf564736f6c63430005100040",
  "source": "pragma solidity ^0.5.4;\r\npragma experimental ABIEncoderV2;\r\n\r\n/*\r\n *   Smart contract for notarizing documents\r\n */\r\ncontract ProofOfExistence {\r\n    // Custom data struct to hold document object\r\n    struct DocumentProof {\r\n        uint256 docId; // Auto generated uint256 id\r\n        bytes32 hashKey; // Auto generated hash using in-built object keccak256\r\n        string name; // Name of document\r\n        uint256 size; // Size of document\r\n        string docType; // Document type\r\n    }\r\n    // DocumentProof struct array to hold list of uploaded documents\r\n    DocumentProof[] public documentProofs;\r\n\r\n    //event DocumentProofAdded(uint256 docId, string document, bytes32 hashKey);\r\n    event AllDocumentsEvent(DocumentProof[] documentProofs); //Registered event to through all documents\r\n\r\n    //Function to notarize document\r\n    // @Param - Document name, size and type\r\n    // @Visibility - Public\r\n    function notarize(\r\n        string memory document,\r\n        uint256 size,\r\n        string memory docType\r\n    ) public {\r\n        // Condition to check if their's any document or not\r\n        require(\r\n            bytes(document).length > 0,\r\n            \"Document name should not be empty\"\r\n        );\r\n        //logic to notariz document using in-built object keccak256\r\n        uint256 _docId = uint256(\r\n            keccak256(abi.encodePacked(block.timestamp, document))\r\n        ) % 400;\r\n\r\n        // Create documentProof object using user document object\r\n        DocumentProof memory dp = DocumentProof(\r\n            _docId,\r\n            generateProof(document),\r\n            document,\r\n            size,\r\n            docType\r\n        );\r\n\r\n        //push document into array\r\n        documentProofs.push(dp);\r\n        //Emit event\r\n        emit AllDocumentsEvent(documentProofs);\r\n    }\r\n\r\n    // Function to remove single document\r\n    // @Param - document id\r\n    // @Retrun type - boolean if delete is success\r\n    function removeNotarizedDocument(uint256 docId) public returns (bool) {\r\n        return findAndDelete(docId);\r\n    }\r\n\r\n    // Function to remove bulk documents\r\n    // @Param - list of document ids\r\n    // @Visibility - Public\r\n    function removeSelectedDocuments(uint256[] memory docIds) public {\r\n        for (uint256 i = 0; i < docIds.length; i++) {\r\n            findAndDelete(docIds[i]); // find and delete matched document\r\n        }\r\n    }\r\n\r\n    //Function to retrieve all the document proofs\r\n    //Visibility - Public\r\n    //Return type - list of documents\r\n    function getAllDocumentProofs()\r\n        public\r\n        view\r\n        returns (DocumentProof[] memory)\r\n    {\r\n        return documentProofs;\r\n    }\r\n\r\n    //Internal function to notarize document\r\n    //visibility - Pure and internal\r\n    //Return type - Hash key (bytes32)\r\n    function generateProof(string memory document)\r\n        internal\r\n        pure\r\n        returns (bytes32)\r\n    {\r\n        return keccak256(abi.encodePacked(document));\r\n    }\r\n\r\n    //Function to find single document details\r\n    //Param - document id\r\n    //Visibility - view and public\r\n    //return type - DocumentProof struct\r\n    function findById(uint256 _id) public view returns (DocumentProof memory) {\r\n        DocumentProof memory dp;\r\n        //Loop documentProof array and returned the matched document\r\n        for (uint256 i = 0; i < documentProofs.length; i++) {\r\n            if (documentProofs[i].docId == _id) {\r\n                dp = documentProofs[i];\r\n                return dp;\r\n            }\r\n        }\r\n        revert(\"Document does not exist.\");\r\n    }\r\n\r\n    //Function to find document and delete based on document id\r\n    // Visibility - Public and payable\r\n    function findAndDelete(uint256 _id) public payable returns (bool) {\r\n        uint256 docToDeleteIndex;\r\n        //Find the index of document to be deleted\r\n        for (uint256 i = 0; i < documentProofs.length; i++) {\r\n            if (documentProofs[i].docId == _id) {\r\n                docToDeleteIndex = i;\r\n            }\r\n        }\r\n        //if not found revert\r\n        if (docToDeleteIndex < 0) {\r\n            revert(\"Document does not exist.\");\r\n        }\r\n        //if document is at last index then delete and return true\r\n        /*if (docToDeleteIndex == documentProofs.length) {\r\n            documentProofs.length--;\r\n            return true;\r\n        } else {*/\r\n            //Delete the document based on swap-swift logic\r\n            DocumentProof memory lastIndexDoc = documentProofs[documentProofs\r\n                .length - 1];\r\n\r\n\r\n            DocumentProof memory toDeleteIndexDoc = documentProofs[docToDeleteIndex];\r\n            documentProofs[docToDeleteIndex] = lastIndexDoc;\r\n            documentProofs[documentProofs.length - 1] = toDeleteIndexDoc;\r\n            documentProofs.length--;\r\n            return true;\r\n        //}\r\n    }\r\n}\r\n",
  "sourcePath": "C:\\Users\\sshankariya\\Desktop\\DAPP-Examples\\DAPP-11\\contracts\\ProofOfExistence.sol",
  "compiler": {
    "name": "solc",
    "version": "0.5.16+commit.9c3226ce.Emscripten.clang"
  },
  "schemaVersion": "3.1.0",
  "updatedAt": "2020-08-04T20:06:07.870Z",
  "networkType": "ethereum",
  "devdoc": {
    "methods": {}
  },
  "userdoc": {
    "methods": {}
  }
}